:020000040800F2
:100000000000032049300008953000085120000806
:10001000572000085D200008632000080000000051
:100020000000000000000000000000009530000803
:100030009530000800000000953000089530000859
:10004000953000089530000895300008953000087C
:10005000953000089530000895300008953000086C
:10006000953000089530000895300008953000085C
:10007000953000089530000895300008953000084C
:1000800095300008953000089530000835200008AC
:100090003920000895300008292000089530000814
:1000A000953000089530000895300008953000081C
:1000B000953000089530000895300008953000080C
:1000C00095300008953000089530000895300008FC
:1000D00095300008953000089530000895300008EC
:1000E00095300008953000089530000895300008DC
:1000F00095300008953000089530000895300008CC
:1001000095300008953000089530000895300008BB
:1001100095300008953000089530000895300008AB
:10012000953000089530000895300008953000089B
:1001300095300008953000089530000849200008E7
:100140004D200008953000083D200008953000083B
:10015000953000089530000895300008953000086B
:10016000953000089530000895300008953000085B
:100170009530000895300008953000080000000018
:10018000953000089530000895300008953000083B
:10019000953000089530000895300008953000082B
:1001A00095300008953000089530000810B5054CD2
:1001B000237833B9044B13B10448AFF30080012313
:1001C000237010BD180E002000000000EC51010843
:1001D00008B5034B1BB103490348AFF3008008BDCA
:1001E000000000001C0E0020EC510108154B002BF4
:1001F00008BF134B9D46A3F5803A00218B460F465E
:100200001348144A121A08F061F80F4B002B00D063
:1002100098470E4B002B00D0984700200021040087
:100220000D000D48002802D00C4802F09FFA07F09C
:1002300041FE2000290002F043FC02F0E9FB00BF70
:10024000000008000000032000000000B12A0008A0
:10025000180E0020301800206D2700080000000054
:10026000F02070474FF4A0707047292000F074BC54
:10027000282000F071BC08B500F0F6FBCA2000F0A1
:100280006BFCC32000F04CFC082000F049FC50201F
:1002900000F046FCCF2000F05FFC002000F040FCA6
:1002A000C12000F03DFC302000F03AFCED2000F0D1
:1002B00053FC642000F034FC032000F031FC1220D9
:1002C00000F02EFC812000F02BFCE82000F044FC24
:1002D000852000F025FC002000F022FC782000F0B2
:1002E0001FFCCB2000F038FC392000F019FC2C203A
:1002F00000F016FC002000F013FC342000F010FC8D
:10030000022000F00DFCF72000F026FC202000F079
:1003100007FCEA2000F020FC002000F001FC002097
:1003200000F0FEFBB12000F017FC002000F0F8FB0D
:100330001B2000F0F5FBB62000F00EFC0A2000F0B8
:10034000EFFBA22000F0ECFBC02000F005FC102029
:1003500000F0E6FBC12000F0FFFB102000F0E0FB06
:10036000C52000F0F9FB452000F0DAFB152000F075
:10037000D7FBC72000F0F0FB902000F0D1FB362027
:1003800000F0EAFBC82000F0CBFBF22000F0E4FB19
:10039000002000F0C5FBB02000F0DEFBC22000F022
:1003A000BFFBB62000F0D8FB0A2000F0B9FBA72065
:1003B00000F0B6FB272000F0B3FB042000F0B0FBF8
:1003C0002A2000F0C9FB002000F0AAFB002000F06A
:1003D000A7FB002000F0A4FBEF2000F0A1FB2B20E6
:1003E00000F0BAFB002000F09BFB002000F098FB1F
:1003F000012000F095FB3F2000F092FBF62000F07A
:10040000ABFB012000F08CFB002000F089FB0620F4
:1004100000F086FB2C2000F09FFBC82000F0EEFBD4
:10042000262000F099FB012000F07AFBE02000F08C
:1004300093FB0F2000F074FB292000F071FB2420B7
:1004400000F06EFB0C2000F06BFB0E2000F068FB50
:10045000092000F065FB4E2000F062FB782000F0E0
:100460005FFB3C2000F05CFB092000F059FB1320EF
:1004700000F056FB052000F053FB172000F050FB66
:10048000112000F04DFB002000F04AFBE12000F0BD
:1004900063FB002000F044FB162000F041FB1B2012
:1004A00000F03EFB042000F03BFB112000F038FB85
:1004B000072000F035FB312000F032FB332000F044
:1004C0002FFB422000F02CFB052000F029FB0C2024
:1004D00000F026FB0A2000F023FB282000F020FB80
:1004E0002F2000F01DFB0F2000F01AFB112000F060
:1004F00033FBC82000F082FB292000F02DFBBDE873
:1005000008402C2000F028BB08B500F0ADFA03210C
:10051000D32000F03DFB80B208BD10B5C4B202226A
:100520000321204600F098FB0A2000F0E5FB20465E
:100530000022032100F090FBBDE81040022000F0F3
:10054000DBBB38B50446E4B200F05AFB002120467C
:1005500000F09CFB01210546204600F097FB40EA95
:10056000052080B238BD10B5C4B24021204600F04D
:100570008DFB030607D54C21204600F087FB003891
:1005800018BF012010BD01224B21204600F064FB62
:10059000204600224B2100F05FFB0020F2E773B5FC
:1005A0000423C4B20E461546D7210DEB03022046A4
:1005B00000F08AFB019B1BBA1A0DC3F30B23328098
:1005C00020462B8001224B2100F046FB00224B21CC
:1005D000204600F041FB02B070BD000010B50A4B90
:1005E0001A78904204460DD0597888420AD00AB150
:1005F00041B901229C5400F003FB2046BDE81040A5
:10060000FFF78BBF10BD00BF340E002010B5C4B281
:100610000921204600F03AFB40F00100C2B2092156
:100620002046BDE8104000F017BB10B5C4B2092148
:10063000204600F02BFB092100F0FE022046BDE819
:10064000104000F009BB38B5C4B20D4620460A215F
:1006500000F01CFB40EA0502D2B220460A21BDE8A8
:10066000384000F0F9BA07B5019000F0CBFA0198D4
:100670001F21FFF7E8FF019803B05DF804EBFFF7D7
:10068000C5BF38B5C4B20D4620460A2100F0FEFAB7
:1006900020EA0502D2B220460A21BDE8384000F027
:1006A000DBBA10B50446FFF7C0FF20461F21BDE8A6
:1006B0001040FFF7E6BF10B5C0B20C460B2100F0AA
:1006C000E5FA204010BD1F21FFF7F5BF0A46C0B272
:1006D0000B2100F0C1BA1F21FFF7F8BF38B5C4B233
:1006E0000D462046172100F0D1FA20EA0502D2B2C9
:1006F00020461721BDE8384000F0AEBA70B5C4B24C
:1007000006460421204600F0C1FA042100F0FB0255
:100710000546204600F0A0FA3046F021FFF7DEFF44
:1007200005F0F8022046042100F096FA4922202123
:10073000204600F091FA022000F0DEFA2046012265
:10074000212100F089FA20469A22412100F084FA02
:10075000204601224A2100F07FFA204601224B2147
:1007600000F07AFA204600224B2100F075FA20466C
:100770000122562100F070FA20460122582100F093
:100780006BFA20460122402100F066FA2046FF2243
:100790000B2100F061FABDE87040022000F0ACBA15
:1007A000014B986B02F044BE20140020014B586BA3
:1007B00002F03EBE2014002010B5214C88B0204627
:1007C00004F0A1FE002838D11E4B23601823E361FA
:1007D0000723E3624FF40073C4E90400A3614FF4FC
:1007E00082736360184B0190A060A062E060206299
:1007F00060625A6C42F480125A645A6C02F480129D
:100800000192019A02901A6B42F020021A631B6B4C
:1008100003F020030293029B4FF460710223CDE9A1
:100820000313059301200523CDE9060303A9074817
:1008300003F018F8204604F001FB08B010BD00BF1B
:10084000380E0020005001400038024000140240E1
:1008500007B5094BADF806001B68084801220DF1E9
:10086000060104F044FB20B1044804F02AFBFFF722
:10087000A3FF03B05DF804FB18030020380E00202E
:100880002DE9F04F654E8BB0304603F0D3FC0446A3
:10089000002840F0C080624A624B634D0190C6E977
:1008A00000234FF48043C6E90200C6E90430C6E9DC
:1008B000060030622B6B43F004032B632B6B03F0B9
:1008C00004030193019B02902B6B43F001032B6304
:1008D0002B6B079003F001030293029B53484FF4E4
:1008E00080711223CDE905130427022305A9CDE960
:1008F000083702F0B7FF4FF4007305A94C48059381
:1009000002F0B0FF03942B6C43F400032B642B6CB8
:1009100003F400030393039B2B6A43F400032B624D
:100920002B6A23F400032B6222460F21482002F099
:1009300085FC482002F0B6FC22460F21492002F037
:100940007DFC492002F0AEFC04942B6B394843F443
:1009500000132B632B6B384D046303F400130493D3
:10096000049B70634FF0C063C0E900534022334DD5
:1009700086634FF4806B4FF4403A4FF00309C0E9AF
:100980000224C0E904B4C0E90644C0E908A7C0E9EC
:100990000A9402F0ABFC4FF40041C5F88011C5F891
:1009A0008010BFF34F8FBFF36F8FF022DFF89C8072
:1009B00085F80F23D8F80800DFF894C0C0F87CC091
:1009C00029601F481F4904634FF0C063C0E900134A
:1009D000C0E90244C0E904B4C0E90644C0E908A77C
:1009E000C0E90A94B063866302F080FC4FF40053C0
:1009F000C5F88031C5F88030BFF34F8FBFF36F8FDC
:100A0000F02285F80D23D8F808200F4951673046A9
:100A10002B6003F0E1F90BB0BDE8F08F201400204B
:100A2000005C0040A0860100003802400000024047
:100A300000080240F00E00207060024000E100E07B
:100A4000900E002040600240A107000800ED00E089
:100A5000AD07000808B5034803F02DFABDE80840CB
:100A6000FFF70EBF20140020F0B5294B1D7889B088
:100A7000002D4AD1274C009501261E70236B264875
:100A800043F008032363236B059503F008030093E9
:100A90000227009B06974FF4005303A9CDE90336C4
:100AA00002F0E0FE0195236B1B4843F0080323632B
:100AB000236B03F008030193019B03A94FF48053B8
:100AC000CDE90336CDE9055702F0CCFE0295236B44
:100AD000124843F004032363236B03F0040304244C
:100AE000029303A9029BCDE90346CDE9055702F025
:100AF000B9FE0A482A46214602F0A0FF07483246BE
:100B0000214602F09BFFFFF757FE09B0F0BD00BF82
:100B1000360E002000380240000C0240000802405F
:100B200038B50B4D044601220A484FF4005102F03B
:100B300085FF00220421284602F080FF2046FFF7AF
:100B400087FE28460122BDE83840042102F076BF26
:100B500000080240000C024038B50B4D044600224C
:100B60000A484FF4005102F069FF00220421284690
:100B700002F064FF2046FFF76BFE28460122BDE825
:100B80003840042102F05ABF00080240000C024025
:100B900037B505460C4615480022042102F04EFFE9
:100BA00000224FF40051124802F048FF2846FFF798
:100BB0004FFE104B10481B68224601A904F0B5FBFC
:100BC00020B10D4804F07DF9FFF7F6FD0848019CBF
:100BD00001224FF4005102F031FF044801220421A8
:100BE00002F02CFF204603B030BD00BF00080240D9
:100BF000000C024018030020380E002005F018BD3C
:100C0000FFF73EBE10B586B00024104B00941A6B5F
:100C10000F4842F001021A631B6B03F001030093BB
:100C2000009B4FF4004301930123CDE9033401A954
:100C3000084B029302F016FE22460F21282002F0F4
:100C4000FDFA282002F02EFB06B010BD003802404D
:100C500000000240000021107FB50A4B8DF81720DC
:100C60001B6802930DF117020123009201930A46BB
:100C70000146054803F038F908B1FFF7EBFE07B06D
:100C80005DF804FB14030020201400207FB500232E
:100C90008DF817300A4B1B6802930A4601230DF1A9
:100CA0001701009101930146064803F0B3F908B11A
:100CB000FFF7D0FE9DF8170007B05DF804FB00BFFA
:100CC00014030020201400201FB5094C2468009252
:100CD000CDE901340A4601230146064803F09AF99A
:100CE00010B1FFF7B7FE012080B204B010BD00BF05
:100CF000140300202014002005F09ABC2DE9F743CE
:100D0000154CDDF82C9016461F464FF44032002358
:100D1000C4E901230A9BE3608046104B2360204610
:100D20000D4602F082FC98B94146204602F046FD8D
:100D300070B9009733462A464946204602F0A1FC86
:100D400030B90A21204603B0BDE8F04302F0B3BC3D
:100D500003B0BDE8F08300BF540F002000B0024094
:100D600008B5024B1B689B6A984708BD74140020A5
:100D700008B5024B1B68DB6A984708BD7414002055
:100D800070B58EB000240E4605460194FFF7E8FFCB
:100D9000CDE90204FFF7ECFFFF23CDE906344FF461
:100DA000C0620723CDE90823CDE90404ADF834403F
:100DB0008DF836400A96FFF7D3FF0B90FFF7D8FF68
:100DC0000C4C0C902A4601A9204603F029FB0A4A44
:100DD0000C2303FB05F013184FF0FF31596007494E
:100DE00099604FF07F431350204603F077FB0EB01D
:100DF00070BD00BF78140020940F00203003002045
:100E0000014B1860704700BF500F0020084B1A6854
:100E1000C00102F184030129C1580CBF41F0010156
:100E200021F00101C150536A43F00103536270473E
:100E30007814002038B5064D04460246284603F0D3
:100E400018FB21462846BDE8384003F02FBB00BF01
:100E500078140020034B1A680C235343024AD050E5
:100E6000704700BF500F0020940F0020034B044A2E
:100E70001B680C2101FB032358607047500F0020B2
:100E8000940F0020034B044A1B680C2101FB032331
:100E900098607047500F0020940F0020034B044AC5
:100EA0001B680C2101FB032398687047500F00203A
:100EB000940F002030B50D4B0D4A1D68342303FB01
:100EC000052385B0D96D03910446FFF749FF0290D1
:100ED000FFF74EFF034600200090DDE90221019458
:100EE0002846FFF70BFF05B030BD00BF500F0020B4
:100EF000781400202DE9FF47DFF858A00393164629
:100F00008946DAF8002011490446342000FB021219
:100F1000D2F85C80FFF724FFDAF800700546FFF78F
:100F20001FFFDAF80020039B05FB09410C25554300
:100F3000074A801B525901920090324608EB81010A
:100F40003846FFF7DBFE04B0BDE8F08778140020D8
:100F5000940F0020500F0020024B1B689B6803B1C8
:100F6000184770477414002030B58FB0494B4A4D74
:100F70004A484B4C00220192596C41F080615964FF
:100F8000596C01F08061019101990292196B41F451
:100F900000011963196B01F4000102910299039297
:100FA000196B41F001011963196B01F00101039103
:100FB00003990492196B41F002011963196B01F056
:100FC0000201049104990592196B41F0040119631F
:100FD000196B01F00401059105990692196B41F016
:100FE00008011963196B01F008010691069907922F
:100FF000196B41F020011963196B01F02001079171
:1010000007990892196B41F0400119631B6B03F0BB
:1010100040030893089B41F658010223CDE90B23B6
:10102000CDE909130E2309A90D9302F01BFC4FF41F
:10103000706309A92846099302F014FC4FF49863E1
:1010400009A91848099302F00DFC482309A916487C
:10105000099302F007FC4FF4806309A91348099330
:1010600002F000FC4FF40C6309A92046099302F03A
:10107000F9FB0323099309A9092328460D9302F0DC
:10108000F1FB4FF4A05309A92046099302F0EAFBB3
:101090000FB030BD003802400004024000000240A2
:1010A0000018024000080240000C024000140240F8
:1010B00038B5204C204B236009210123C4E90513D6
:1010C0001D200323C4E9070340F20D1540F243132A
:1010D00040F2171C1948C4E9095340F24713C4E908
:1010E0000BC308230360C02303610423002583612D
:1010F0004FF400334362A58684F8365003F0CAFCEF
:10110000C4E90155C4E90355FFF72EFF204603F05B
:101110001BF90B4A0B4B13601B68984700F006FA4B
:10112000094B0A4A1B680C2101FB0323084A9A60F9
:10113000284638BD7814002000680140AC0F00201C
:1011400074140020B4020020500F0020940F0020DF
:1011500030030020F8B5084B15461B68074A0C46BB
:10116000342101FB03230646DF6DFFF7F9FD00FB89
:10117000046047F82050F8BD500F0020781400207C
:101180002DE9F04F87B0CDE902012F482F4F0368BA
:1011900004900C2101FB0373A2F120059968B1F8BA
:1011A00004B0CB8800930BF10706F610CBEBC60416
:1011B000E3B20193009B0A685D4306FB05254FF0EF
:1011C0000009039B03EB0901009B994589B202D3F7
:1011D00007B0BDE8F08F012E2C7804D0022E0ED17E
:1011E0002C8864BAA4B2019B0BF1FF3A4FF00008BF
:1011F0009A44C3450AD809F101093544E1E76A7800
:10120000240444EA0224AA781443ECE7029B0591E3
:1012100003EB0800049BAAEB080E4FF0010C1A68C0
:101220000CFA0EFC1CEA040F4FF00C0C15BF0CFB63
:1012300002F20CFB0272BA58526880B2FFF78AFFC2
:1012400008F101080599D4E7500F0020940F002001
:101250002DE9F84F9A4681460F46154613461C461F
:1012600013F8012B002AFAD1FFF77AFD254A264E02
:1012700013680C2101FB0363BAF1010F9B689046D0
:101280009B88B0FBF3F01CD0BAF1020F21D0013DD6
:101290004FF0000A4FF00C0B15F8014F003C18BF3F
:1012A0000124FFF75DFDD8F800300BFB03639B685A
:1012B0009B8803FB1A0080B2984200D374B9BDE842
:1012C000F88F2C1B2044584309EB50001FFA80F97B
:1012D000DDE72C1B044414FB0390F7E748462A780B
:1012E0003946FFF74DFFD8F800300BFB03630AF1D6
:1012F000010A9B68988848441FFA80F91FFA8AFA05
:10130000CAE700BF500F0020940F00202DE9F347DB
:10131000214C224D01264FF0000808272146814626
:101320004FF6FF722846C4E90067C4E90268CDF8A9
:10133000048003F0E8FC304605F07AF902232146E8
:101340004FF6FF722846C4E900374FF0040AC4E99B
:10135000026803F0D8FC032321464FF6FF722846AB
:10136000C4E90037C4E902A803F0CDFC4FF40C73C4
:101370000193019BA66021464FF6FF722846C4E9FF
:1013800000A7E36003F0BFFC4946284602B0BDE871
:10139000F04703F0CFBC00BFDC0F0020EC0F0020B3
:1013A00070B506468EB0002800F0AB80564B57480B
:1013B000574C002501959A6B42F001029A639A6B93
:1013C00002F001020192019A02951A6B42F4800226
:1013D0001A631A6B02F480020292029A03951A6B46
:1013E00042F002021A631A6B02F002020392039A9D
:1013F00004951A6B42F004021A631A6B02F004029D
:101400000492049A05951A6B42F008021A631A6B4B
:1014100002F008020592059A06951A6B42F0100236
:101420001A631A6B02F010020692069A07951A6B5D
:1014300042F020021A631A6B02F020020792079A08
:1014400008951A6B42F040021A631B6B03F04003CD
:101450000893089B0223CDE90B530A930C230D93A9
:1014600009A96023099302F0FDF901232948099392
:1014700009A902F0F7F94CF203732748099309A967
:1014800002F0F0F94FF683732448099309A902F09A
:10149000E9F94FF63F032248099309A902F0E2F95E
:1014A00048F233131F48099309A902F0DBF98021A0
:1014B0004FF40073C4E902134FF480604FF480537B
:1014C000C4E904034FF48043C4E906354FF4003304
:1014D000C4E908350323C4E90A352563124B346394
:1014E000204623606560A66301F07EFF204601F080
:1014F000FDFE38202A460F2101F0A0FE382001F021
:10150000D1FE0EB070BD00BF0038024000040240A2
:101510003C10002000080240000C02400010024075
:1015200000140240001802401064024038B51A4C02
:101530001A4D1B4B2360072102230422C5E9003109
:10154000C5E90221C5E904330021AB610123C4E9E7
:101550000131E26040231022C4E904234FF4C07338
:10156000C4E906314FF40063C4E9083120464FF462
:101570000053A362FFF714FF2946204603F0A3FBA4
:10158000084C003818BF0120207040F26A50FFF765
:10159000BDFE207838BD00BFEC0F002020100020D9
:1015A000400100A01C03002038B50C4B0C4C1880E7
:1015B0000C4B822019806368984740F611039842CB
:1015C0000AD1094D23682C60822098472B6882201D
:1015D000DB689847002038BD0120FCE7A010002000
:1015E000EC020020A21000209C100020F7B52D4D29
:1015F0002B6804461B698220984780B2208000280F
:1016000043D02B680DF106025B6901A9822098473F
:10161000BDF80620A2F5B47292B20A2A37D90B237C
:10162000B2FBF3F2204B1B88934201D25A1E92B2B6
:10163000BDF8043040F6B8318B422AD8C3F5716347
:101640000E339BB20F21B3FBF1F31849098899427D
:1016500001D24B1E9BB2164E164D30682F68834246
:1016600081B28CBF591AC91AB8B2BA428CBF101ACB
:10167000801A89B280B201440529C8BF336033683B
:10168000C8BF2A6063802B68A38003B0F0BD00222E
:10169000CEE7C3F56D6308339BB20E2BD2D800237F
:1016A000D9E700BF9C100020A2100020A01000204D
:1016B000A4100020A810002010B50446FFF7F8FC85
:1016C0004FF050410120FFF75BFB0120FFF798FB33
:1016D0004FF0FF30FFF7EEFB4FF0FF310120FFF737
:1016E000A9FB00210120FFF791FB09490020FFF72A
:1016F00047FB0020FFF784FB0648FFF7C3FBFFF71B
:101700002BFC4FF0FF30FFF7D5FB204610BD00BF8C
:10171000000013D0200300207047FFF721BBFFF724
:1017200027BB0846FFF796BB0846FFF79FBB084656
:10173000FFF7C0BB084611461A469DF80030FFF778
:1017400087BD084611461A46BDF80030FFF7D2BBE8
:1017500010B54FF4A0710446F020FFF725FF204696
:1017600010BD704708461146FFF71EBF0846FFF739
:101770003DBF704710B55021044604F08BFF204652
:1017800010BD000008B5034650F8042B0AB91860D4
:1017900008BD8242FCD002490248682204F0D2FD12
:1017A0006C3E01088C3E010808B50248FFF7EAFFCD
:1017B00008BD00BFF012002008B50248FFF7E2FFA5
:1017C00008BD00BFF012002073B50546094B0A4E54
:1017D00045F8043B044630460191FFF7D3FF0199D9
:1017E000284600F019FB3046FFF7CCFF204602B038
:1017F00070BD00BFA83E0108F012002038B5104DA2
:10180000104C02212846FFF7DFFF28460E4D0F4AF5
:10181000214600F0A9FF04212846FFF7D5FF2846FE
:101820000B4D0A4A214600F09FFF06212846FFF78C
:10183000CBFF21462846054ABDE8384000F094BF5A
:10184000AC10002073170008FC100020B00200202C
:101850004C1100203C2310B57822C0E900335023FE
:10186000C0E9023204460649103005F05FF8022351
:1018700084F83030034B4FF0FF31C4E90A1310BD38
:10188000B83E0108FF0000FF10B58C224FF48773AB
:10189000C0E9002364213223C0E90231044607492C
:1018A000103005F043F8002384F830304FF0FF206B
:1018B0006FF0FF03C4E90A0310BD00BFBE3E01087C
:1018C0003C23C82210B5C0E900327822C0E90232B8
:1018D00004460649103005F029F8012384F8303019
:1018E000034B4FF0FF32C4E90A2310BDC53E010887
:1018F0000000FFFF2DE9F041044608460D4616465C
:1019000000F0E0F82389A289A188208800F00CF972
:10191000284600F0D1F8304600F0D4F894F83000B2
:1019200000F0D6F8E068D4E90115C0F34F0620684E
:10193000783087B201EB550194F830008DB200F099
:10194000DBF8A5EB5001F01922690123BDE8F04155
:1019500089B280B200F0F6B8D0E90A21FFF7CABF19
:10196000D0E90A21C943090921F07041120221F08E
:10197000FF01FFF7BFBF38B5044600F01BFA01288E
:101980000DD194F8315035B984F832002046FFF774
:10199000E7FF84F83450012384F831300DE0022849
:1019A0000CD1002384F8313094F834302BB9204620
:1019B000FFF7D2FF012384F8343038BD94F831307A
:1019C0003BB1012584F833502046FFF7C5FF84F86A
:1019D00034500023E0E790F8333013B1002280F850
:1019E000332018467047000008B50B4800F096F801
:1019F000094800F061F84FF0FF3000F063F8012073
:101A000000F066F80549052000F0AAF8BDE8084096
:101A10000349062000F0A4B80000FFFFCA3E0108F9
:101A2000D63E010808B54FF0FF3000F077F84FF0D0
:101A3000FF3000F041F84FF07F4000F043F8012004
:101A400000F046F80649042000F08AF80549052010
:101A500000F086F8BDE808400349062000F080B891
:101A6000E03E0108E53E0108EB3E01084FF0FF3083
:101A700000F054B810B56FF0FF0000F04FF86FF0B1
:101A8000FF0000F019F84FF07F4000F01BF8022033
:101A900000F01EF80649002000F062F8FFF7FEF99A
:101AA000BDE81040C188034A0323002000F04AB873
:101AB000F03E0108FA3E010801460148FFF734BE36
:101AC0009C11002001460148FFF72BBE9C1100200D
:101AD00010B90648FFF7D6B9012801D10448F9E743
:101AE000022801D10348F5E7704700BF200300201A
:101AF000280300203003002010B9054BD888704718
:101B0000012801D1034BF9E70228F6D1024BF5E792
:101B10002003002028030020300300200146014854
:101B2000FFF705BE9C11002007B5009313460A4637
:101B300001460348FFF705FE03B05DF804FB00BF54
:101B40009C11002007B5009313460A46014603483E
:101B5000FFF7F0FD03B05DF804FB00BF9C1100200F
:101B60001FB504460391FFF799F9C288039B054806
:101B700012FB04F4012200920021A2B2FFF7DAFD69
:101B800004B010BD9C1100200148FFF7C6BD00BF86
:101B90009C1100200148FFF7C2BD00BF9C1100202E
:101BA00010B5054C2046FFF787FD2046034A04493F
:101BB000BDE8104000F0D8BD9C110020B00200200C
:101BC0001917000800220260704700230360704765
:101BD000036801330360704710B50446103004F009
:101BE0007FFD204610BD000080B5FFF71BFF4FF0C2
:101BF000804004F00FFDFFF7C7FF0446FFF7CAFF60
:101C00000146204600F09AF810B9FFF7EDFEFEE716
:101C10002048214C1F4D214E214FFFF71BFE1F482E
:101C2000FFF732FE1F48FFF74BFE00232370237897
:101C3000012B0ED0032B21D0002BF9D1FFF716FF7B
:101C40002846FFF789FE3046FFF786FE0123237002
:101C5000EDE72846FFF78FFE3046FFF78CFE28465B
:101C6000FFF7B9FE0028E2D03846FFF7AEFFFFF7D6
:101C700001FF0C48FFF770FE0323E8E70948FFF770
:101C80007AFE3846FFF7A4FF0648FFF7A4FE0028B7
:101C9000CDD0D3E7481200209D110020A0110020D4
:101CA000B8120020801200201C481D4A1D4910B5A2
:101CB00000F11803002403614461047600F054FD30
:101CC0001948174A1749047600F11803C0E904348B
:101CD00000F04AFD1548124A1249047600F1180333
:101CE000C0E9043400F040FD11480D4A0D49047666
:101CF00000F11803C0E9043400F036FD0D48084A2D
:101D0000047600F11803C0E90434064900F02CFD04
:101D1000BDE810400848FFF755BF00BF481200203B
:101D2000B0020020D91B0008A01100208012002062
:101D3000D811002010120020B81200208AB208B575
:101D400081B20348FFF70EFDB0FA80F0400908BDEC
:101D5000C012002037B504460D4612486946FFF709
:101D600005FDBDF80000104978B100230B60BDF8F7
:101D700002302380BDF804300C4A2B80218811806A
:101D80000B4A1380012003B030BD0A680132642A77
:101D90000A60F8D8054B1B882380054B1B882B80D5
:101DA000F0E700BFC0120020BC120020C2120020C9
:101DB000C412002013B504460DF1060101A8FFF777
:101DC000C9FF98B1BDF8042023689A4210D3E16896
:101DD0000B449A420CD8BDF806306068834207D3A2
:101DE000A268104483428CBF0220012002B010BDC3
:101DF0000220FBE710B5054C2046FFF7A9FC204662
:101E0000034A0449BDE8104000F0AEBCC0120020F7
:101E1000B0020020631700087FB5A1F1F0039BB268
:101E20000F2B04460D4615D93849284604F06EF8A4
:101E300036492060284604F08BF834490646284687
:101E400004F01CF82268511C0FD1314931483C2262
:101E500004F078FA3049284604F058F82E492060FA
:101E6000284604F075F80646ECE7731C03D13D22C2
:101E700027492A48ECE70121E1612949A4F84850A3
:101E80000023C6F304368A4284F84A602364636000
:101E9000A3602361A36123626362E362A362E360E0
:101EA0002363636111D101931E4B5A6C42F480721B
:101EB0005A645B6C03F480730193019B204601F02C
:101EC00007F900B3184804F05DFB18498A420BD1AA
:101ED0000293144B5A6C42F400725A645B6C03F424
:101EE00000730293029BE9E711498A42E6D103930A
:101EF0000C4B5A6C42F480625A645B6C03F480634E
:101F00000393039BDAE704B070BD00BF083F0108EC
:101F1000044301086C430108544101089643010839
:101F20000020014000380240AF4301080021014079
:101F30000022014043692DE9F0410D46D9070446CE
:101F400028D58168334F8268334E836833483940DF
:101F5000B94202EA060204BF0127A760B24203EABF
:101F6000000304BF4FF48076A660834204BF4FF4A1
:101F70008030A0602748814205D027498A4202D09C
:101F8000264A934206D1264B264A1B6852F8250062
:101F900001219847E2686369920708D09F0706D538
:101FA0001F4B204A1B6852F8250000219847A16961
:101FB000626963698E070AD5900508D5190406D5AC
:101FC000174B184A1B6852F8250005219847A76946
:101FD0006669626917F0040706F4806609D046B1A5
:101FE000120406D50E4B0F4A1B6852F82500072134
:101FF000984763695FB156B11B0408D5084B094A7D
:102000001B6852F825000221BDE8F0411847BDE8E1
:10201000F08100BF0300000400030008000003106B
:10202000D0120020C812002000210148FFF782BF13
:1020300000640040FFF7F8BFFFF7F6BF0121014839
:10204000FFF778BF00680040FFF7F8BFFFF7F6BF63
:10205000102300F009B8202300F006B8302300F068
:1020600003B8402300F000B8EFF308800421724663
:102070000A4201D0EFF309809C46244B196802689C
:102080000A60043142680A60043182680A600431DF
:10209000C2680A600431F0C147460F6004314F4600
:1020A0000F60043157460F6004315F460F60043102
:1020B00002690A60083142690A60043182690A6073
:1020C0000431C2690A600431034620334FF40076BC
:1020D000324200D0043375461026354200D14833D1
:1020E0000C46103C2360EFF309820A600431EFF3E1
:1020F00008820A60043172460A600431EFF31482E8
:102100000A606046014900F009FAFEE75044010800
:1021100030B5036891FAA1F4B4FA84F491FAA1F10C
:102120000325B1FA81F1640005FA04F4490023EAB9
:10213000040302FA01F11943016030BD00B5002229
:102140008DB04A4B0A2800F28E80DFE800F00614BA
:10215000202C3844505C6874800001921A6B44480B
:1021600042F001021A631B6B03F001030193019B10
:102170000DB05DF804FB02921A6B3E4842F0020279
:102180001A631B6B03F002030293029BF0E70392B6
:102190001A6B394842F004021A631B6B03F0040304
:1021A0000393039BE4E704921A6B344842F008025D
:1021B0001A631B6B03F008030493049BD8E7059292
:1021C0001A6B2F4842F010021A631B6B03F01003C6
:1021D0000593059BCCE706921A6B2A4842F0200231
:1021E0001A631B6B03F020030693069BC0E707925C
:1021F0001A6B254842F040021A631B6B03F0400340
:102200000793079BB4E708921A6B204842F08002BC
:102210001A631B6B03F080030893089BA8E70992DD
:102220001A6B1B4842F480721A631B6B03F48073B1
:102230000993099B9CE70A921A6B164842F40072B4
:102240001A631B6B03F400730A930A9B90E70B92CB
:102250001A6B114842F480621A631B6B03F48063AB
:102260000B930B9B84E70D4804F08CF90038024077
:10227000000002400004024000080240000C02403E
:10228000001002400014024000180240001C0240EE
:10229000002002400024024000280240C5430108FB
:1022A000431C10B5044604D176220649064804F0C2
:1022B00049F8002100F028FC04F00F040120A040A0
:1022C00010BD00BFE64301083844010870B504465C
:1022D0004B1C0E46218216D0C1F30310FFF72EFFD0
:1022E00005463046FFF7DCFF238A074A656103F0A5
:1022F0000F03206052F82330A36105F11003183555
:102300006360A560E56070BD60470108B0F910002A
:1023100000F08CBC0A4619B981694069FFF7F8BE24
:102320000122F9E708B503F0DFFC002008BD00003A
:1023300008B50A4B1B684BB103F0F6FF03F0DEFF54
:102340004FF47A7200230CF0A1FB08BD03F02CFDC2
:102350004FF47A73B0FBF3F008BD00BFD412002035
:1023600000B589B004F00AF86D2101A803F082FDE0
:10237000114E124D0424039B019A1A60304604F05A
:1023800039F9019B049A1B041360304604F032F9BA
:10239000013CF0D10424039B019A1A60284604F002
:1023A00029F9019B049A1B041360284604F022F9C2
:1023B000013CF0D1DEE700BFF0490200801A0600C0
:1023C00010B5044603F0DAFF204606F0D9F921469D
:1023D0000246022000F064FABDE8104003F0E4BFBA
:1023E00010B5A2B00B460246842101A809F048FEB0
:1023F0008328044605D9052205490DF1830005F01F
:102400005FFE002C02DD01A8FFF7DAFF22B010BD4D
:102410004B4401080FB407B504A951F8040B01910E
:10242000FFF7DEFF03B05DF804EB04B07047000077
:10243000F0B52C4C2C4F85B00025264654F82520AD
:10244000294638460135FFF7E5FF0D2DF6D1A36C7F
:102450000293636C0193236C009304F13401234CC9
:1024600023480EC9FFF7D6FF21682248FFF7D2FFA5
:10247000E16AA26AA36AA06A256BE76B0297000C67
:1024800001950090C3F30723D2B21B48FFF7C2FFA8
:10249000A36A1D0603D5616B1848FFF7BBFFA36A4B
:1024A000180403D5A16B1648FFF7B4FFF36C1907A6
:1024B00012D51448FFF7AEFF336DDA070FD5124877
:1024C000FFF7A8FFF36C5B074CBF1048104805B03E
:1024D000BDE8F040FFF79EBF0E48FFF79BFF0E4898
:1024E000EEE700BF20150020E444010800ED00E005
:1024F000F2440108414501084F4501089E45010885
:10250000AC450108BA450108C9450108F94501086B
:1025100005460108E9450108D645010813B50446FA
:102520001548FFF777FF302C17D0402C1AD0202CFD
:102530001DD11248124CFFF76DFF1248FFF76AFFDA
:10254000FFF776FF1048FFF765FF00230F4A00935F
:10255000D26B0F49204604F035F80E480E4CFFF7B9
:1025600059FFEAE70D480E4CFFF754FFE5E70D4829
:102570000D4CFFF74FFFE0E7544401087D4401088C
:102580003E01FF80AA440108B5440108201500203F
:10259000D44401088C4401083F01FF8095440108A0
:1025A0004001FF80A04401083D01FF8000B58DB0CF
:1025B00003F048FB00F070FD03F036FB03F042FB34
:1025C00030220021684605F081FE0B4B1B6F13F48F
:1025D000407F0AD00823009368460123059301F049
:1025E000D1FF10B1054803F0CDFF054B01221A6061
:1025F0000DB05DF804FB00BF003802401146010831
:10260000D412002000207047036801221B690021BA
:102610001847036800221B691146184703681B69A5
:10262000184703689B69184703689B6A1847002985
:102630000CBF6FF0180000207047012070477047F2
:102640006FF01C0070476FF0150070470120704755
:102650000020704770470000F8B5074E15460C463D
:102660008F18BC4205D014F8011B304600F0DAFC8C
:10267000F7E72846F8BD00BF7415002038B58DB2C5
:1026800015F0010405D0084800F02EFB041C18BF0B
:102690000124EB0605D5044800F03CFB08B144F0EA
:1026A0001004204638BD00BF7415002010B5044644
:1026B00005F0AEFC204610BD10B50C462AB104480A
:1026C00000F09EFC2070012010BD104610BD00BF20
:1026D0007415002038B51D46074B0360074B1B6877
:1026E000044633B9064800F08FFB2946044800F041
:1026F00047FB204638BD00BF44460108E8120020D1
:1027000074150020002070470020704707B5002393
:1027100000931A460149024803F054FF2F4601086E
:10272000290101800C4A136810B51844EFF30881A1
:10273000884205D3094B0C221A604FF0FF3010BDC0
:1027400007490C6824B10749096821448842F1D23D
:102750001060184610BD00BF380400202C1800205F
:10276000E0120020E4120020012070470120704791
:102770007047704708B5FFF7FBFF08BD08B5FFF7C6
:10278000F8FF08BD08B5037803F00302012A0BD057
:102790002AB140F28C520549054803F0D3FD43F0BD
:1027A00002030370012008BD002008BDA9460108EE
:1027B000F846010808B5037803F00302022A05D0A1
:1027C00040F294520449054803F0BCFD23F0030392
:1027D00043F00103037008BDA94601081E47010824
:1027E0003F2870B504462FDC184D55F820305A1C90
:1027F00013D1022811DCFFF787FF034658B92046A2
:10280000FFF780FF034630B9114E3378BFF35B8F7B
:10281000DB0704D50F4B45F82430184670BD304611
:10282000FFF7B0FF0028F5D04FF416530A22092114
:102830000848FFF74FFF3046FFF7BCFF064A07493D
:102840000448FFF791FFE5E70023E6E7380300209F
:10285000D8120020DC120020B0020020552600080B
:1028600038B50546FFF7BCFF0B4B002443F8254065
:1028700030B905F0A3F9092303604FF0FF3038BDEC
:1028800003685B699847051E04DA05F097F96D4205
:102890000560F2E7204638BD38030020FFF7E0BFAF
:1028A00038B50C461546FFF79BFF38B905F086F999
:1028B000092303604FF0FF34204638BD03682146EA
:1028C000DB682A469847041EF6DA05F077F9644279
:1028D0000460EFE708B5131E06DA05F06FF916235A
:1028E00003604FF0FF3008BD04D0FFF7D9FF40EA86
:1028F000E07008BD184608BD38B50C461546FFF710
:102900006FFF38B905F05AF9092303604FF0FF341F
:10291000204638BD036821469B682A469847041E16
:10292000F6DA05F04BF964420460EFE7002A08B5D7
:1029300003DBBDE80840FFF7DFBF05F03FF91623D2
:1029400003604FF0FF3008BD10B5FFF749FF0446A4
:1029500028B905F033F909230360204610BD036848
:10296000DB699847041EF8DA05F028F96442046030
:102970000024F2E7FFF7E8BF38B50C461546FFF72D
:102980002FFF38B905F01AF9092303604FF0FF341F
:10299000204638BD036821461B692A469847041E15
:1029A000F6DA05F00BF964420460EFE7FFF7E4BFE5
:1029B00010B5FFF715FF30B905F000F909230360E2
:1029C0004FF0FF3010BD03689B699847041E04DA7E
:1029D00005F0F4F864420460F2E7002010BD000046
:1029E0000A4C08B523680546986805F0B3F92368D2
:1029F000D86805F0AFF90120FFF7DAFF0220FFF7F2
:102A0000D7FF0DB1FFF7ACFCFEE700BF4C04002080
:102A100008B5FFF7E5FF38B50D46FFF7E1FE0446C0
:102A200030B905F0CBF8092303604FF0FF3038BD13
:102A30000368DB699847002814BF4FF400534FF434
:102A400000436B60236820469B6A984728610020FA
:102A500038BDFFF7E0BF000013B5044605F0D0FA1B
:102A6000034628B9009022460249034803F0AAFD14
:102A700002B010BD8C4601081F01018005F0C8BAE4
:102A800070477047074B08499A68084810B5043AE0
:102A900052F8044F41F8044F8142F9D14FF00052EF
:102AA0009A6010BD00ED00E0FCFFFF1FA8010020B0
:102AB00008B5FFF7E7FFFFF779FDFFF7E2FF08BD75
:102AC00008B5FFF7DDFFBDE80840FFF78DB830B56A
:102AD000C36891FAA1F4B4FA84F491FAA1F1032540
:102AE000B1FA81F1640005FA04F4490023EA040311
:102AF00002FA01F11943C16030BD012A02D0022A55
:102B000018BF0022FFF7E3BF2DE9F0410E46411C3C
:102B100004D1424942483E2203F014FC00F00F0861
:102B2000404BC0F3031053F82840FFF707FB06F0B3
:102B30000705836894FAA4F1B1FA81F194FAA4F23A
:102B40000327490007FA01F1B2FA82F223EA0103EE
:102B50005200022101FA02F213438360BD4258D8A9
:102B6000DFE805F01D1D021DB8F1070FC6F30327AE
:102B700039D9426A230A93FAA3F1B1FA81F193FA9F
:102B8000A3F34FF00F0EB3FA83F389000EFA01F1AD
:102B90009B0022EA010207FA03F31343436202682F
:102BA00094FAA4F1B1FA81F194FAA4F30327B3FAE9
:102BB00083F3490007FA01F15B0005FA03F322EA07
:102BC0000102013D1343012D036005D8436832071C
:102BD0004CBF2343A3434360C6F301122146BDE823
:102BE000F041FFF78ABF026A94FAA4F3B3FA83F3C1
:102BF00094FAA4F14FF00F0EB1FA81F19B000EFA96
:102C000003F3890022EA030207FA01F31343036284
:102C1000C5E76722014904487EE700BFA0470108D5
:102C20003844010860470108CF480108431C70B5CB
:102C30000D4604D188221F491F4803F083FB00F092
:102C40000F021E4BC0F3031053F82240FFF776FA31
:102C5000066894FAA4F1B1FA81F394FAA4F2590047
:102C60000323B2FA82F28B4033405200D340013B3F
:102C7000012B05D8EB1E022B436809D82343436080
:102C8000032D08D101222146BDE87040FFF735BF72
:102C900023EA04034360012DF4D0052D01D0022D59
:102CA00001D10222EFE721460022BDE87040FFF784
:102CB0000EBF00BFA0470108384401086047010863
:102CC0000FB407B5064B07491B6805AAD8680192DF
:102CD00009F050F903B05DF804EB04B0704700BF91
:102CE0004C040020F04701084368094A9B0182B068
:102CF000D3581A68120706D5002201921A68019269
:102D00005A680192019A1868C0F3401002B07047E7
:102D1000C01500204368034A9B01D3581868C0F3CC
:102D2000C0107047C015002042681449920110B4C9
:102D300004685450531882685A60C2689A600269E5
:102D4000DA6042691A61026A9A610022DA84DA6101
:102D50009A84DA859A85B0F91A20013206D10822C0
:102D60005A6118465DF8044B02F0C1BDB0F9182055
:102D700001320CBF04220C22F2E700BFC015002074
:102D800010B581600C46FFF7CFFF28B121460348FC
:102D9000BDE81040FFF794BF10BD00BFF047010829
:102DA000184B98421FD0A3F54C4398421DD003F511
:102DB000806398421BD003F58063984219D003F5D5
:102DC0008063984217D003F54443984215D0A3F589
:102DD0001C43984213D003F5806398420CBF072030
:102DE0004FF0FF30704700207047012070470220ED
:102DF0007047032070470420704705207047062065
:102E0000704700BF00100140F0B50E4689B004467F
:102E10006A493046154603F079F86949074628465D
:102E200003F074F80146384603F04CF82060013096
:102E300004D1644964483D2203F084FA092E0AD083
:102E40000A2D08D05D49092003F060F8874224D19B
:102E50005E4803F097FB01275D4B206898424FF0D6
:102E600000031CD100935B4B5A6C42F010025A6471
:102E70005B6C03F010030093009B574B98422BD1DF
:102E800000230593534B5A6C42F020025A645B6C4A
:102E900003F020030593059B5AE00027DCE74F4A27
:102EA00090420BD101934B4B1A6C42F400321A64DE
:102EB0001B6C03F400330193019BDEE7484A904208
:102EC0001AD10293434B1A6C42F480221A641B6C91
:102ED00003F480230293029B424B98421AD10023B1
:102EE00006933C4B1A6C42F080421A641B6C03F050
:102EF00080430693069B2BE03B4A90421AD10393F2
:102F0000344B1A6C42F400221A641B6C03F4002345
:102F10000393039B354B98421AD1002307932D4B03
:102F20001A6C42F000421A641B6C03F000430793D2
:102F3000079B0DE02E4A90429FD10493254B1A6CBB
:102F400042F480121A641B6C03F480130493049BF4
:102F5000FFF726FF0028606003DAA42219492548FC
:102F60006AE71649304602F089FF1549284602F003
:102F700085FF721C03D001213046FFF757FE6B1C02
:102F800003D001212846FFF751FE4FF41653A360EA
:102F90000023E36023616361236226836583204607
:102FA000FFF7C2FE3FB1144B144801221A602146BC
:102FB0004C2205F085F809B0F0BD00BF444201087D
:102FC000844101081A4801086E4801088A4801082E
:102FD000001001400038024000140140004400404D
:102FE0000048004000780040004C0040007C004059
:102FF00000500040BF480108E8120020741500206E
:1030000038B5446805462846FFF76EFE0028FAD01A
:10301000A401034B1B595868C0F3080038BD00BF1A
:10302000C015002070B5456806460C463046FFF7CF
:1030300071FE0028FAD0AD01024B5B59C4F30804BD
:103040005C6070BDC0150020DFF830D0002103E0C7
:103050000B4B5B58435004310A480B4B42189A42C1
:10306000F6D30A4A02E0002342F8043B084B9A4296
:10307000F9D302F033FDFDF7B9F8704700000320E3
:1030800004550108B0020020180E0020180E002080
:1030900030180020FEE7704708B50B4B1A6842F461
:1030A00000721A601A6842F480621A601A6842F468
:1030B00080721A60032000F0AFF80F20FFF732F99A
:1030C000FFF7E9FF002008BD003C02407047000008
:1030D00010B50446002800F09980036C23B94364BE
:1030E00080F83C30FFF7F2FF236CDB0600F18C80A8
:1030F000236C23F4885323F0020343F00203236478
:10310000434B5A6822F440325A605A6861680A4355
:103110005A60236821695A6822F480725A605A689A
:1031200042EA01225A605A68A16822F040725A604D
:103130005A680A435A609A68E16822F400629A6009
:103140009A680A439A603349A26A8A4250D09968C1
:1031500021F07061996099680A439A609A68E16AFF
:1031600022F040529A609A680A439A609A68A1696C
:1031700022F002029A609A6842EA41029A60226A48
:10318000002A3DD05A68616A42F400625A605A6867
:1031900022F460425A605A68013942EA41325A6068
:1031A000DA6AE16922F47002DA62DA6A013942EA23
:1031B0000152DA629A68216B22F400729A609A686E
:1031C00042EA41229A609A68616922F480629A60B8
:1031D0009A68002042EA81229A606064236C23F09E
:1031E000030343F001032364002384F83C3010BD43
:1031F0009A6822F070629A609A6822F04052B4E7AE
:103200005A6822F40062CAE70120EDE7012010BDF0
:10321000002301400100000F074AD36823F4E06354
:103220001B041B0C43F0BF63000243F4003300F4A3
:10323000E0600343D360704700ED00E0174B30B50A
:10324000DC68C4F30224C4F10703251D042B28BF46
:103250000423062D4FF0010505FA03F303F1FF33B4
:103260008CBF033C00241940A14005FA04F4013C42
:103270002240002842EA01024FEA0212ADBF00F1EB
:10328000604000F00F00064B00F56140B5BFD2B2C0
:10329000D2B21A5480F8002330BD00BF00ED00E028
:1032A00014ED00E0002808DB4209012300F01F00B4
:1032B00003FA00F0014B43F82200704700E100E000
:1032C0000368DAB223F47F7323F003031821103A62
:1032D000B2FBF1F20449032A88BF0433895C836599
:1032E000C165806D704700BFD148010870B50446C4
:1032F000FFF71EF80546002C71D0002384F8343007
:103300002268022384F83530136823F00103136028
:1033100021680B68D8073CD40B68324D6268A069FD
:103320001D40A3681343E268134322691343626993
:103330001343E26903431343226A1343626A042A74
:1033400043EA050301BF266BE56A35432B430B6057
:103350004B69042A23F0070343EA02030BD1A26A54
:10336000E56A13433DB1F8B9012A2DD001D3022AF1
:1033700001D1EA012BD44B612046FFF7A1FFE26D9A
:103380003F239340836000200123606584F835303B
:1033900070BDFEF7CDFF401B0528B9D9202363651A
:1033A000032084F8350070BDB0F5005F13D1032A07
:1033B000E1D801A050F822F0CF33000873330008A1
:1033C000CF330008C9330008B5F1C07FD3D1402303
:1033D00063650120E5E7022AF9D9032AC8E701203D
:1033E00070BD00BF3F8010F038B50546F0B190F8D1
:1033F0003540E4B2022C17D003681A6822F00102AB
:103400001A60002421221C605C609C60DC601C61EE
:103410005A61FFF755FFEA6D3F23934083606C6567
:1034200085F8344085F83540204638BD012038BD48
:10343000F7B5002301935A4B856D1F68C36D2E6845
:1034400008229A40164204460CD0016808684007DA
:1034500008D5086820F004000860AA60626D42F098
:103460000102626501229A40164208D0216849692A
:10347000090641BFAA60626D42F002026265042241
:103480009A40164208D021680968880741BFAA609F
:10349000626D42F00402626510229A40164210D01A
:1034A0002368196809070CD5AA601A68500335D536
:1034B0001B68190301D4236C00E0A36C0BB12046F8
:1034C0009847E16D20228A40164238D02368186858
:1034D000C60634D5AA6094F83520052A1A6825D185
:1034E00022F016021A605A6922F080025A61226C98
:1034F0000AB9A26C1AB11A6822F008021A603F23B6
:103500008B40AB60002384F83430012384F83530DD
:10351000236D0BB12046984703B0F0BD1A68D20561
:103520005EBF1A6822F008021A60C4E7500328D56B
:103530001B68190332D4636C0BB120469847636D46
:10354000002BE9D0636DDA0719D50523226884F8CA
:103550003530136823F0010313604FF41653B7FBA3
:10356000F3F7019B01339F42019302D31368DB07FA
:10357000F7D4002384F83430012384F83530E36C29
:10358000C7E71A6812F4807208D1196821F0100197
:103590001960012384F8342084F83530E36BCBE7DD
:1035A0003C04002070B50468049D666C45EA034342
:1035B00006F04046334363644368E263B3F5403F3B
:1035C00030D186681EB1012E03D121F07F41A16365
:1035D00070BD022E01F47F0301F47F45C8B207D10C
:1035E000D90CAD0AC90241EA451141EAD001EEE722
:1035F000032E01F07F420AD1DB0CED0A9B0243EA65
:10360000451343EAD003D10F43EAC131DFE7190D77
:103610002D0B090241EA051141EA1011130F41EA8D
:103620000331D4E7E16070BD704710B5044630B394
:1036300090F8393003F0FF021BB980F83820FFF70B
:10364000F3FF22686168022384F83930136823F499
:1036500040330B431360536BA16823F007030B4304
:103660005363136CE16823F47F5323F03F030B4350
:10367000136400200123E06384F8393010BD012079
:1036800010BD73B590F83840012C05464FF0020488
:103690000FD080F839400126069C80F838600094ED
:1036A000FFF780FF2A68136833431360002002B0DD
:1036B00070BD2046FBE773B50023019303681B68C8
:1036C000DB0704460D4627D42368DA6996065CD5E5
:1036D000FEF72EFE064623685A68D20658D45A686A
:1036E0000192019A12F0290F5DD0019A160742BF8C
:1036F000E26B42F00402E263019A950642BFE26B7C
:1037000042F00202E263019AD00742BFE26B42F04C
:103710000102E26329221BE0FEF70AFE0646236847
:103720005A689207D0D45A680192019A12F0210F78
:1037300017D0019A950642BFE26B42F00202E263A3
:10374000019AD00742BFE26B42F00102E2632122FC
:103750009A60042384F83930002384F8383001203B
:103760001FE0691CDCD055B9E36B43F02003E36331
:103770000320002384F8390084F8383011E0FEF784
:10378000D7FD801B8542CAD2EEE75B6A9B069FD4B9
:10379000236812229A600020012384F8393084F8CB
:1037A000380002B070BD691C96D0002DDCD0FEF749
:1037B000BFFD801B85428ED2D6E7000090F83830DE
:1037C000012BF0B54FF002033FD00E018519012205
:1037D00080F83820EA6980F83930A2F10907012F12
:1037E0000368D5F820E06C6A11D804F07F4444EAFD
:1037F0000E44224381B95C6A194921400A435A6246
:1038000082699A61426A22F07F429A6217E0240636
:1038100044EA0E442243D1B1DD69114C012F04EA80
:103820000504064442EA040298BF00EB0111DA6184
:10383000B2691A619EBF4A6A22F07F421A6201236E
:1038400080F83930002380F838301846F0BD5C6AC3
:10385000034921400A435A6282699A61EFE700BF37
:10386000F0FFFC002DE9F04F85B00B68DFF8C48154
:103870006E4ADFF8C491019300234FF0010E019CC2
:103880000EFA03FE0EEA0406B64540F0B6804C6818
:1038900024F01007022F16D14FEAD30A00EB8A0A50
:1038A00003F0070BDAF820504FEA8B0B4FF00F0CA8
:1038B0000CFA0BFC25EA0C0C0D6905FA0BF545EA30
:1038C0000C05CAF820504FEA430A0325D0F800B08F
:1038D00005FA0AF5ED4304F0030C0BEA050B0CFAAC
:1038E0000AFC013F4CEA0B0C012FC0F800C011D8B4
:1038F000876807EA050BCF6807FA0AFC4CEA0B0752
:103900008760476827EA0E0EC4F300179F4047EA16
:103910000E074760C7683D408F6807FA0AF73D43C6
:10392000C560E50069D54FF0000BCDF80CB0D8F8B4
:1039300044703F4D47F48047C8F84470D8F844704D
:1039400007F480470397039F23F0030707F180479D
:1039500007F59C3703F0030CD7F808A04FEA8C0C4E
:103960004FF00F0E0EFA0CFEA8422AEA0E0E4BD0B4
:1039700005F58065A84249D005F58065A84247D085
:1039800005F58065A84245D005F58065A84243D07D
:10399000484543D005F50065A84241D005F580654E
:1039A000A8423FD005F58065A8423DD005F5806569
:1039B000A84214BF0A25092505FA0CF545EA0E05AB
:1039C000BD601568F74314F4803F0CBF3D4035439C
:1039D0001560556814F4003F0CBF3D4035435560F9
:1039E000956814F4801F0CBF3D4035439560D56841
:1039F000A40254BF3D403543D5600133102B7FF402
:103A00003CAF05B0BDE8F08F5D46D5E70125D3E7B3
:103A10000225D1E70325CFE70425CDE70525CBE730
:103A20000625C9E70725C7E70825C5E7003C01408B
:103A30000000024000380240001402400AB18161D7
:103A400070470904FBE70268536913F480630DD0E3
:103A50006FF4806353610423036420220023036313
:103A600080F83C3080F83D200120704718467047B0
:103A70002DE9F843044617469946C1F307488EB22C
:103A80002568B8F1010F0CBF6B69AB6936EA030317
:103A900014BF0120002008B9BDE8F8836B695A05FE
:103AA00012D52B6843F400732B606FF480636B6155
:103AB0000423236420220023236384F83C3084F809
:103AC0003D200120BDE8F8837B1CD9D04FB90023ED
:103AD0002022236384F83C3084F83D200320BDE895
:103AE000F883FEF725FCA0EB09008742C8D2EEE779
:103AF0002DE9F843089E044690461F46C1F3074946
:103B00008DB22368B9F1010F0CBF5B699B6935EA7F
:103B100003030CBF01230023434502D00020BDE86E
:103B2000F8837B1CEDD05FB900232022236384F847
:103B30003C3084F83D20032084F83E30BDE8F88313
:103B4000FEF7F6FB801B8742DBD2EDE770B504463B
:103B50000D46164623685B691B0601D5002070BD23
:103B60002046FFF770FFA8B96A1CF3D065B9236C33
:103B700043F02003236420220023236384F83C3095
:103B800084F83D20032070BDFEF7D2FB801B8542E8
:103B9000E0D2ECE7012070BD2DE9FF411546026837
:103BA0000B9E9846136843F4807313600F4600968B
:103BB0000A9B00224FF001110446FFF799FF68B9F4
:103BC00023680A9A1C4907F0FE071F612046334606
:103BD000FFF74EFF30B1236C042B18D0032004B044
:103BE000BDE8F081236803905A6903929B690393AF
:103BF00032460A99039B2046FFF7A8FF48B1236C81
:103C0000042BEBD12268136843F400731360012086
:103C1000E5E7B8F1010F236802D1EDB21D61DEE7DF
:103C20002A0A1A610A9932462046FFF78FFF0028B8
:103C3000E5D12368F1E700BF020001002DE9FF4153
:103C4000984603680B9D16461A6842F480621A6013
:103C50001A6842F480721A600F4600950A9B00228F
:103C60004FF001110446FFF743FF80B923682F4945
:103C7000FFB207F0FE021A6120462B460A9AFFF7B0
:103C8000F7FE40B1236C042B01D1012000E003209A
:103C900004B0BDE8F081236803905A6903929B69E0
:103CA00003932A460A99039B2046FFF74FFF40B132
:103CB000236C042BEBD12268136843F40073136068
:103CC000E3E7B8F1010F236824D1F6B21E612A465A
:103CD0000A992046FFF73AFF02460028E8D12168FA
:103CE0000B6843F480730B60204600950A9B4FF0ED
:103CF0000111FFF7FDFE0028C9D123680A9A0B497C
:103D000047F001071F6120462B46FFF7B1FE002850
:103D1000B8D1BDE7320A1A610A992A462046FFF750
:103D200015FF0028C4D12368CFE700BF02000100BF
:103D300070B504460D4616462068436913F04003EB
:103D400001D0002070BD4269D2060BD56FF0100281
:103D500042612022236484F83C302363012084F8EC
:103D60003D2070BD5DB9236C43F020032364202304
:103D700084F83D30002384F83C30032070BDFEF70A
:103D8000D7FA801B8542D7D2EDE770B504460D46C1
:103D9000164623685B695B0701D5002070BD20468D
:103DA000FFF751FEA8B96A1CF3D065B9236C43F044
:103DB0002003236420220023236384F83C3084F80A
:103DC0003D20032070BDFEF7B3FA801B8542E0D290
:103DD000ECE7012070BD704770B50446002862D042
:103DE00090F83D3003F0FF021BB980F83C20FFF74C
:103DF000F2FF22682D4E2E4D242384F83D301368A7
:103E000023F00103136000F007FE63682268B0FB33
:103E1000F5F5B34284BF4FF496716943556091BF85
:103E2000691C4FF47A75B1FBF5F10131B3421162AF
:103E300021D85B00B0FBF3F0C0F30B03032B98BF5A
:103E40000420216AE369D0610B431360E1682369B0
:103E50000B439360A16963690B43D360136843F01C
:103E60000103136000202023206484F83D30206388
:103E700084F83E0070BDA16849B903EB4303B0FB71
:103E8000F3F0C0F30B0363B140F40040D9E719210C
:103E90004B43B0FBF3F0C0F30B0313B140F44040CD
:103EA000CFE70120CDE7012070BD00BFA086010053
:103EB00040420F00704710B5044698B102682423B1
:103EC00080F83D30136823F001031360FFF7F2FF21
:103ED0000020206484F83C0084F83D00206384F8CE
:103EE0003E0010BD012010BD2DE9F34704469A465F
:103EF000884691460C9EFEF71BFA94F83D30202B25
:103F0000054603D0022002B0BDE8F08700901923D7
:103F100001223E492046FFF7EBFD0028F2D194F83C
:103F20003C30012BEED0012384F83C3023681A6822
:103F3000D2075EBF1A6842F001021A601A6822F4C2
:103F400000621A60212384F83D30402384F83E301B
:103F50000A9B63620027BDF82C30276463852C4BD5
:103F6000E362638D23850195009653464A46414698
:103F70002046FFF711FE00282AD0236C84F83C70FD
:103F8000042B07D10120BEE7FFF7E0FD20B1236C31
:103F9000042B34D00320B6E7616A2768228D4B1CBE
:103FA00063620B783B61638D013B9BB263857B69E8
:103FB000501E80B25B0720850AD548B18B1C636216
:103FC0004B783B61638D013B023A9BB2228563854E
:103FD000238D2A4631462046002BD5D1FFF7D5FE4A
:103FE0000028D4D12268136843F40073136020239F
:103FF00084F83D3084F83C0084F83E0083E7226872
:10400000136843F400731360BCE700BF02001000A4
:104010000000FFFF2DE9F047044686B09A460D46A2
:104020009146109FFEF784F994F83D30202B064608
:1040300004D00225284606B0BDE8F0870090192379
:10404000012279492046FFF753FD0028F1D194F869
:104050003C30012BEDD0012384F83C3023681A68F2
:10406000D2075EBF1A6842F001021A601A6822F491
:1040700000621A60222384F83D30402384F83E30E9
:104080000E9B63624FF00008BDF83C30C4F84080DE
:104090006385664BE362638D23852946019600970D
:1040A00053464A462046FFF7C9FD054630B1236C0A
:1040B00084F83C80042B3AD10125BBE7228D23688C
:1040C00092B902905A6902929A690292029A1A6807
:1040D00042F400721A60202384F83D30002384F8F3
:1040E0003E3084F83C30A5E7012A22D11A6822F438
:1040F00080621A6003905A6903929A690392039A44
:104100001A6842F400721A60DFF82481238D002BB4
:10411000E1D0032B6BD8012B23D132463946204600
:10412000FFF706FE002839D0236C202BC4D10325CD
:1041300080E7022A0ED11A6822F480621A601A6897
:1041400042F400621A6004905A6904929B690493D5
:10415000049BD9E705905A6905929B690593059BD5
:10416000D2E7022B00963B464FF000024146204624
:1041700022D1FFF7BDFC0028D9D123681A6842F488
:1041800000721A60626A1B69511C61621370238D90
:10419000013B2385638D013B9BB26385636A5A1C97
:1041A0006262226812691A70238D013B2385638D38
:1041B000013B9BB26385A9E7FFF79AFC0246002802
:1041C000B5D12368196821F480611960616A1B699F
:1041D000481C60620B70238D0096013B2385638D24
:1041E000013B9BB2638541463B462046C1E73246D0
:1041F00039462046FFF79CFD002895D1636A5A1C7A
:104200006262226812691A70238D2268013B23853D
:10421000638D013B9BB2638553695B077FF576AF86
:10422000636A591C6162BDE7020010000000FFFFD5
:104230000400010090F83D0070472DE9F043D201E1
:1042400004684F68E568D1F800E0D1F8189084322E
:10425000A3180EF10106586800F470405860E06839
:10426000C5F30B45C0F30B403D44304440EA0540E4
:104270005860E068CD68C0F30A000544986800F40F
:1042800070409860E6688868C6F30A0601303044DA
:1042900040EA0540986018690E6920F0070018612F
:1042A0004FF0000C1E619D6991F8320091F8318049
:1042B000C3F818C091F8305045EA096545EA082569
:1042C00045EA00459D61586920F0FF005861486942
:1042D0005861D86920F4E06020F00700D861086ACE
:1042E000CD690543DD61986A486AC3F828C09862C1
:1042F0001EB3012E23D0B01E022822D9072E0CBFD8
:1043000002200120DD6A05F0E025DD628D6AC96AC0
:10431000A7EB0E0745437843033040EA0540D862D7
:10432000186B20F4FF6020F0070018631963A3588E
:1043300043F00103A350BDE8F0830420E2E703202B
:10434000E0E70220DEE7704738B50446002863D076
:1043500090F8A13003F0FF021BB980F8A020FFF70E
:10436000F2FF022384F8A1302368A0689A6922F042
:1043700070429A61626899690243E0680243206969
:1043800002430A439A619A68244960690A409A6024
:104390009A6842EA0042A06902439A60DA68E069DA
:1043A0000A40DA60DA6842EA0042206A0243DA60D0
:1043B0001A69606A0A401A611A6942EA0042A06AF0
:1043C00002431A615A69114059615A69E16A42EA25
:1043D0000142216B0A435A61D96A94F8360094F875
:1043E000355001F07F41D962D96A94F834200A43EC
:1043F00042EA052242EA0042DA625A6B42F00602C1
:104400005A639A6942F001029A6100200123C4F8BC
:10441000A40084F8A13038BD012038BD00F800F0B8
:10442000F8B590F8A030012B06468E4694464FF022
:1044300002001DD034240D4686F8A10004FB02645E
:104440000FCD0127383486F8A0700FC40FCD0FC4EC
:104450000FCD0FC42B682360304662467146FFF7CC
:10446000ECFE336800205F6286F8A17086F8A00039
:10447000F8BD90F8A030012B10B54FF0020313D017
:10448000046880F8A13004EBC212D2F8903003F037
:104490007F43C2F890300123C2F89010636280F825
:1044A000A130002380F8A030184610BD90F8A0304D
:1044B000012B4FF002030FD0C90180F8A1308431E5
:1044C00003685A5842F002025A5001225A620023ED
:1044D00080F8A12080F8A0301846704790F8A030EE
:1044E000012B4FF002030CD0074A80F8A1309369EA
:1044F00043F480339361012380F8A130002380F8D6
:10450000A0301846704700BF0068014037B500234F
:104510000193184B184C1A6C42F080521A641B6CB1
:1045200003F080530193019B144B01221A60FDF7A5
:10453000FFFE05466368DA030BD5114B0E4C0122D2
:104540001A60FDF7F5FE054663689B030AD5002057
:1045500006E0FDF7EDFE401BB0F57A7FEAD90320B7
:1045600003B030BDFDF7E4FE401BB0F57A7FEBD918
:10457000F5E700BF003802400070004040000E42E6
:1045800044000E422DE9F341044618B9012002B05F
:10459000BDE8F0810368DD0710D42368980758D47C
:1045A00023681A0700F19A8023685B0700F1B8803E
:1045B000A269002A40F019810020E8E7A64B9A681A
:1045C00002F00C02042A07D09A6802F00C02082AB2
:1045D0000AD15B68590207D59F4B1B689A03DCD54B
:1045E0006368002BD9D1D1E763689B4DB3F5803F59
:1045F00011D12B6843F480332B60FDF799FE964D63
:1046000006462B689B03C8D4FDF792FE801B6428E6
:10461000F7D90320BBE7B3F5A02F04D12B6843F4EF
:1046200080232B60E5E72A6822F480322A602A681A
:1046300022F480222A60002BDFD1FDF779FE0646A6
:104640002B689F03A9D5FDF773FE801B6428F7D95B
:10465000DFE7814B9A6812F00C0F07D09A6802F0DE
:104660000C02082A11D15B685E020ED47A4B1A68DC
:10467000950702D5E268012A88D11A68216922F0DB
:10468000F80242EAC1021A608AE7E268734BB2B1EB
:1046900001221A60FDF74CFE6F4D06462B68980705
:1046A00007D52B68226923F0F80343EAC2032B6085
:1046B00076E7FDF73DFE801B0228EFD9A9E71A60D7
:1046C000FDF736FE644D06462B6899077FF568AF07
:1046D000FDF72EFE801B0228F6D99AE76269604B2F
:1046E0007AB101221A60FDF723FE5B4D06466B6F1F
:1046F0009F073FF559AFFDF71BFE801B0228F6D937
:1047000087E71A60FDF714FE534D06466B6F980756
:104710007FF54AAFFDF70CFE801B0228F6D978E73B
:104720004D4B1A6C12F0805228D101921A6C42F053
:1047300080521A641B6C03F080530193019B012685
:10474000484D2B68D9051BD5A368434D012B27D1B4
:104750002B6F43F001032B67FDF7EAFD3E4D074643
:1047600041F288382B6F9B0739D5002E3FF420AFDC
:10477000394A136C23F08053136419E70026DFE7EE
:104780002B6843F480732B60FDF7D2FD07462B683E
:10479000DA05D9D4FDF7CCFDC01B0228F7D938E7DC
:1047A000052B04D12B6F43F004032B67D0E72A6F4E
:1047B00022F001022A672A6F22F004022A67002BE6
:1047C000CAD1FDF7B5FD41F2883807462B6F98072F
:1047D000CBD5FDF7ADFDC01B4045F7D919E7FDF777
:1047E000A7FDC01B4045BDD913E71B4DAB6803F0C7
:1047F0000C03082B3FF4CAAE1B4E0023022A336081
:1048000034D1FDF795FD07462B6899011ED4226A25
:10481000E3691343626A43EA8213E26A43EA02638A
:10482000A26A0D4C5208013A43EA02436B6001232D
:104830003360FDF77DFD054623689A013FF5BCAE68
:10484000FDF776FD401B0228F6D9E2E6FDF770FD84
:10485000C01B0228D8D9DCE60038024000004742DD
:10486000800E47420070004060004742FDF760FD47
:1048700004462B689B017FF59FAEFDF759FD001B99
:104880000228F6D9C5E600BF134908B58B6803F0C6
:104890000C03042B03D0082B03D0104808BD10488C
:1048A00008BD4A684B68496813F4800314BF0C487C
:1048B0000A48C1F3881118BF002302F03F02A1FB90
:1048C00000010AF0E3F8044B5B68C3F301430133D2
:1048D0005B00B0FBF3F008BD003802400024F40098
:1048E00000127A002DE9F0410D46044610B901206E
:1048F000BDE8F081444B1A6802F00F028A4228D3C7
:1049000021688F072DD4C80740D43F4B1A6802F0A6
:104910000F02954266D3226851076CD4130707D55E
:104920003A4A2169936823F4604343EAC1039360E0
:10493000FFF7AAFF354B364A9B68C3F30313D35CDA
:10494000D840344B18600F20FDF7ECFC0020BDE888
:10495000F081CAB21A701B6803F00F039942C6D1E6
:10496000CEE72A4B11F0040F1EBF9A6842F4E052C2
:104970009A600E0742BF9A6842F460429A609A6851
:10498000A06822F0F00202439A60BCE762681F4B05
:10499000012A1DD11B6813F4003FA8D01B4EB36839
:1049A00023F003031343B360FDF7C2FC41F28838E0
:1049B0000746B368626803F00C03B3EB820FA4D020
:1049C000FDF7B6FCC01B4045F3D90320BDE8F081DC
:1049D000911E01291B6802D813F0007FDDE713F058
:1049E000020FDAE7EAB21A701B6803F00F039D4268
:1049F0007FF47DAF8FE70549E0688B6823F4E053CF
:104A000003438B608AE700BF003C0240003802404D
:104A1000ED4801083C040020044B054A9B68C3F3A1
:104A20008223D35C034A1068D840704700380240A4
:104A3000FD4801083C040020044B054A9B68C3F371
:104A40004233D35C034A1068D840704700380240B4
:104A5000FD4801083C0400200F2303600B4B9A68BB
:104A600002F0030242609A6802F0F00282609A68E3
:104A700002F4E052C2609B68DB0803F4E053036178
:104A8000034B1B6803F00F030B60704700380240B4
:104A9000003C02400368F7B59A07044640F088805E
:104AA000236813F00C0F44D0804D814E00232B60FF
:104AB000FDF73EFC074633689B0000F1BD8021688E
:104AC0004F0715D56369D6F8882020691B0602F0C8
:104AD000E04243EA80131343C6F88830D6F88C309E
:104AE000226A23F4F853013A43EA0223C6F88C30D1
:104AF0000E0714D56E4AA369D2F8881020691B07E7
:104B000001F0706143EA80130B43C2F88830D2F899
:104B10008C30616A23F440330B43C2F88C3001239C
:104B20002B60FDF705FC624D06462B68980040F1AE
:104B30008A8023689A0631D5002301935C4B5D4D32
:104B40001A6C42F080521A641B6C03F0805301937C
:104B5000019B2B6843F480732B60FDF7E9FB06464D
:104B60002B68D90576D5524D2B6F13F4407377D14E
:104B7000A36A03F44072B2F5407F4D4A40F0918041
:104B8000916823F0704021F4F81120F44070014343
:104B90009160116FC3F30B030B431367206810F090
:104BA00010001FBF444B94F82C201A60002041E0F5
:104BB000424D3F4E00232B60FDF7BAFB074633689A
:104BC0001B0131D42268D70706D5A36861681B078B
:104BD00043EA8113C6F88430900715D5344AE36858
:104BE000D2F8841060681B0601F0E04143EA8013AC
:104BF0000B43C2F88430D2F88C10E36921F01F0116
:104C0000013B0B43C2F88C3001232B60FDF790FB76
:104C1000274D06462B6819013FF542AFFDF788FB8B
:104C2000801B0228F6D904E0FDF782FBC01B022896
:104C3000C5D9032003B0F0BDFDF77AFBC01B0228E5
:104C40007FF639AFF5E7FDF773FB801B02287FF68F
:104C50006CAFEEE7FDF76CFB801B022880D9E8E71C
:104C6000A26A02F44072934282D02B6F144A01214F
:104C7000116023F44073002111602B672B6FDA075A
:104C80007FF576AFFDF754FB41F2883706462B6F70
:104C90009B073FF56DAFFDF74BFB801BB842F6D984
:104CA000C7E7916821F4F81172E700BF700047422E
:104CB0000038024000700040E0114742680047425F
:104CC000400E4742704738B50D460446C8B190F8CB
:104CD0002C3003F0FF021BB980F82D20FFF7F2FF04
:104CE000022384F82C30211D206800F02EFE62681B
:104CF0002068294600F068FE012384F82C3000204B
:104D000038BD012038BD38B5044690F82C00C0B23B
:104D100002280D460DD0022384F82C30206800F0C4
:104D20009BFE2B68022B0CBF0523012384F82C303B
:104D3000002038BD10B5044690F82C00C0B20228FF
:104D400009D0022384F82C30206800F0AAFE012349
:104D500084F82C30002010BD03685A6822F0E0026D
:104D60005A604268B2F5827F0AD18268B2F5004F7C
:104D700002D0B2F5806F03D11A6822F040021A60A7
:104D8000826AB2F5005F09D11A6822F40052120457
:104D9000120C1A601A6842F400521A60012380F85B
:104DA0005130002380F850300320704770B505461D
:104DB0000C46164629688B689B0701D5002070BDFC
:104DC000621CF8D024B92846BDE87040FFF7C4BF84
:104DD000FDF7AEFA801B8442ECD8F4E72DE9F041F0
:104DE000DDF8188005460F4616461C462B68986865
:104DF0003840B04202D10020BDE8F081621CF6D0FC
:104E000024B92846BDE8F041FFF7A6BFFDF790FAA8
:104E1000A0EB08008442E9D8F3E713B50B460092F3
:104E2000802100220446FFF7D9FF20B1636D43F0D3
:104E300020036365032002B010BD704738B50446F7
:104E400000283BD090F8513003F0FF021BB980F8E6
:104E50005020FFF7F2FF2168A568A06AA26902232B
:104E600084F851300B6823F040030B6063682B43D8
:104E7000E5682B4325692B4365692B43E5692B4383
:104E8000256A2B43034302F400752B430B60120C7D
:104E9000636AB0F5005F02F0040242EA030208BF51
:104EA000E36A4A6008BF0B61CB6923F40063CB61FE
:104EB00000200123606584F8513038BD012038BDE1
:104EC000704710B5044680B10268022380F8513063
:104ED000136823F040031360FFF7F2FF00206065C2
:104EE00084F8500084F8510010BD012010BD2DE958
:104EF000F3411E4690F85030012B04460D46904673
:104F000000F0BA80012380F85030FDF711FA07460F
:104F100094F85100C0B2012840F0AC80002D5FD061
:104F2000B8F1000F5CD0032384F85130002363658F
:104F3000A363A4F83680A387E38763642364A3682C
:104F400022682563B3F5004F08BF1368A4F83480C6
:104F500004BF43F480431360A36AB3F5005F09D133
:104F6000136823F400531B041B0C1360136843F4F1
:104F70000053136013685B065EBF136843F0400381
:104F80001360E368B3F5006F63683AD11BB1E38E39
:104F90009BB2012B06D135F8023BD360E38E013B77
:104FA0009BB2E386E38E9BB283B93A4631462046F4
:104FB000FFF7FCFE98B93A4631462046FFF72DFF31
:104FC000002840D020236365012009E023689A6807
:104FD000900703D535F8022BDA60DFE74EB90320DE
:104FE000012384F85130002384F8503002B0BDE82A
:104FF000F081711CD6D0FDF79BF9C01B8642D1D839
:10500000EDE71BB1E38E9BB2012B06D115F8013BF6
:105010001373E38E013B9BB2E386E38E9BB2002BBE
:10502000C3D023689A68920703D515F8012B1A7329
:10503000EFE7002ED3D0731CEFD0FDF779F9C01B3A
:105040008642EAD8CBE7A36833B901932368DA68CC
:1050500001929B680193019BA36AB3F5005F01BFB6
:105060002268136843F480531360606D003018BFEA
:105070000120B5E70220B3E70220B7E72DE9F043AE
:1050800085B099460023ADF80A3090F850300C9E58
:10509000012B04460D46904600F04581012380F81F
:1050A0005030FDF745F994F851306168DBB2012BBF
:1050B00007460AD0B1F5827F40F03381A268002A0A
:1050C00040F02F81042B40F02C81002D00F01B813B
:1050D000B8F1000F00F01781B9F1000F00F0138153
:1050E00094F85130C4F83880012B04BF052384F8AC
:1050F00051300023636523646364A36AA4F83E907F
:10510000B3F5005FA4F83C902563A4F83690A4F8AA
:105110003490236809D11A6822F400521204120C48
:105120001A601A6842F400521A601A6850065EBF8C
:105130001A6842F040021A60E268B2F5006F6BD163
:1051400019B1E28E92B2012A06D135F8022BDA604B
:10515000E38E013B9BB2E3864FF00109E38E9BB2E5
:10516000B3B9E38F9BB29BB9A36AB3F5005F40F07C
:10517000AE8001220097334611462046FFF72EFEEF
:10518000002800F09D80636D43F00203636535E005
:10519000B9F1000F1BD0E38E9BB2C3B122689368B4
:1051A000990714D535F8023BD360E38E013B9BB2DF
:1051B000E386E38E1FFA83F9B9F1000F29D1A16AC2
:1051C000B1F5005F03D1116841F480511160E38FA4
:1051D0009BB263B123689A68D20708D5DB6828F8C8
:1051E000023BE38F013B9BB2E3874FF00109701C48
:1051F000B4D0FDF79DF8C01B8642AFD8032501232C
:1052000084F85130002384F85030284605B0BDE8BA
:10521000F0834FF00009DAE719B1E28E92B2012A69
:1052200006D115F8012B1A73E38E013B9BB2E3867E
:105230004FF00109E38E9BB21BB9E38F9BB2002BA9
:1052400092D0B9F1000F21D0E38E9BB2F3B1236865
:105250009A6891071AD529781973E38E013B9BB29E
:10526000E386E38E1FFA83F96A1CB9F1000F0AD1B5
:10527000A16AB1F5005F04D12068016841F4805152
:105280000160154602E015464FF00009E38F9BB21E
:1052900073B123689A68D2070AD5DB6888F80030B2
:1052A000E38F013B9BB2E38708F101084FF001094E
:1052B000731CBFD0FDF73CF8C01B8642BAD89DE7EF
:1052C0002368DB689BB2ADF80A30BDF80A3022686B
:1052D000956815F0100507D0636D43F00203636510
:1052E0004FF6EF73936001253A4631462046FFF7AB
:1052F0005DFD002882D13A4631462046FFF78DFDFC
:1053000018B120236365012579E7A368002B7FF49A
:1053100076AF03932368DA6803929B680393039B39
:105320006DE702256BE702256FE72DE9FF411D467A
:105330000023ADF80E304368B3F5827F04460E4675
:1053400090460CD1836853B9042380F8513013463A
:1053500000950A46FFF792FE04B0BDE8F08194F88C
:105360005030012B00F0CD80012384F85030FCF741
:10537000DFFF074694F85100C0B2012840F0BF801B
:10538000002E7DD0B8F1000F7AD0042384F851307C
:10539000002363652363A4F83E80A386E386236429
:1053A0006364A36AA663B3F5005FA4F83C80236836
:1053B0000DD11A6822F400521204120C1A601A68F5
:1053C00042F400521A60E28F013A92B2E287A26878
:1053D000B2F5004F02BF1A6822F480421A601A68C0
:1053E00051065EBF1A6842F040021A60E368CBB112
:1053F000E38F9BB2D3B123689A68D0074FD5DB689F
:1054000026F8023BE38F013B9BB2E387F0E723687A
:105410009A68D20732D51B7B06F8013BE38F013B2C
:105420009BB2E387E38F9BB2002BF0D1A36AB3F565
:10543000005F45D12268136843F480531360012252
:1054400000972B4611462046FFF7C8FCB8B9E36821
:10545000B3F5006F23684FF001020BBFDB681B7BC5
:105460003380337000972B4611462046FFF7B6FC79
:10547000F8B1636D43F00203636500E03DB90320BA
:10548000012384F85130002384F8503064E76B1C0A
:10549000C8D0FCF74DFFC01B8542C3D8EFE7002DF5
:1054A000EDD0691CA4D0FCF743FFC01B85429FD8F8
:1054B000E5E72368DB689BB2ADF80E30BDF80E302F
:1054C0006368B3F5827F23680AD1A268B2F5004F02
:1054D00002D0B2F5806F03D11A6822F040021A6040
:1054E0009A68D20606D5626D42F0020262654FF6F6
:1054F000EF729A60606D003018BF0120C0E7022093
:10550000BEE7022028E790F851007047704700007E
:105510002E4A0368904212D0B0F1804F0FD0A2F50E
:105520007C4290420BD002F58062904207D002F597
:105530008062904203D002F5784290421DD14A68C1
:1055400023F070031343214A904204D1CA6823F424
:105550004073134328E0B0F1804FF7D01C4A9042CB
:10556000F4D002F580629042F0D002F58062904261
:10557000ECD002F578429042E8D0164A9042E5D04D
:1055800002F580629042E1D002F580629042DDD067
:10559000A2F598329042D9D002F580629042D5D0DF
:1055A00002F580629042D1D003608B68C3620B68C1
:1055B0008362064B984206D003F58063984202D07E
:1055C0000123436170470B690363F9E70000014061
:1055D000000400400040014010B50446A0B190F81E
:1055E000393003F0FF021BB980F83820FFF78EFF37
:1055F000022384F839302068211DFFF789FF012339
:1056000084F83930002010BD012010BD036A10B5A8
:1056100001248C4023EA04030362036A8A401A438C
:10562000026210BD10B5044600220068FFF7EEFFCD
:105630002368124A934203D002F5806293420DD14F
:10564000196A41F21112114208D1196A40F244421A
:10565000114202BF5A6C22F400425A64196A41F2A4
:105660001112114208D1196A40F24442114203D189
:105670001A6822F001021A60002010BD00000140EB
:1056800010B5044601220068FFF7C0FF2368084AEE
:10569000934203D002F58062934203D15A6C42F4E4
:1056A00000425A641A6842F001021A60002010BDDC
:1056B00000000140FFF7E4BF2DE9F0470668C2682B
:1056C0003369C16923F4405313433361044683684B
:1056D0000069F2680343606922F41642034322F032
:1056E0000C020B431343F3607369A26923F4407304
:1056F0001343B1F5004F73617A4B7CD19E4203D0C6
:1057000003F580639E4244D1FFF796F9192505FB06
:1057100000F360684FF064094000B3FBF0F3B3FBA3
:10572000F9F34FEA0318FFF787F9636868435B00F2
:10573000B0FBF3F7FFF780F9636868435B00B0FBE9
:10574000F3F3B3FBF9F309FB1373DB003233B3FB61
:10575000F9F35B0003F4F877FFF76EF962686843CA
:105760005200B0FBF2FAFFF767F9636868435B0029
:10577000B0FBF3F3B3FBF9F309FB13A3DB00323304
:10578000B3FBF9F303F0070343443B44B360BDE8C4
:10579000F087FFF741F9192505FB00F360684FF02A
:1057A00064094000B3FBF0F3B3FBF9F34FEA0318CD
:1057B000FFF732F9636868435B00B0FBF3F7FFF76C
:1057C0002BF9636868435B00B0FBF3F3B3FBF9F3B9
:1057D00009FB1373DB003233B3FBF9F35B0003F413
:1057E000F877FFF719F9626868435200B0FBF2FAE4
:1057F000FFF712F9B9E79E4202D03B4B9E4240D1DF
:10580000FFF71AF9676819254FF0640905FB00F3E3
:10581000BF00B3FBF7F3B3FBF9F31F01FFF70CF97C
:10582000636868439B00B0FBF3F8FFF705F9636812
:1058300068439B00B0FBF3F3B3FBF9F309FB13835D
:105840001B013233B3FBF9F303F0F008FFF7F4F870
:10585000626868439200B0FBF2FAFFF7EDF8636804
:1058600068439B00B0FBF3F3B3FBF9F309FB13A30D
:105870001B013233B3FBF9F303F00F0343EA0803D0
:1058800083E7FFF7C9F8676819254FF0640905FB3E
:1058900000F3BF00B3FBF7F3B3FBF9F31F01FFF70E
:1058A000BBF8636868439B00B0FBF3F8FFF7B4F8FC
:1058B000636868439B00B0FBF3F3B3FBF9F309FBA8
:1058C00013831B013233B3FBF9F303F0F008FFF746
:1058D000A3F8626868439200B0FBF2FAFFF79CF805
:1058E000BDE700BF0010014000140140704710B533
:1058F000044640B390F8393003F0FF021BB980F83A
:105900003820FFF7F3FF2268242384F83930D36866
:1059100023F40053D3602046FFF7CEFE23681A69B4
:1059200022F490421A615A6922F02A025A61DA6816
:1059300042F40052DA6000202023E06384F839301A
:1059400084F83A3010BD012010BD0B684A68D1F8C8
:1059500010C0012B2DE9F0430368D1F80890D1F86D
:105960000C804D698C69D1F81CE00F6A4E6A14D026
:1059700023F4FF4323F07F031A4342EA090242EA79
:10598000080242EA0C032B43234343EA0E033B4342
:10599000334303600020BDE8F083416821F4FF41F8
:1059A00021F07F0123F4F8430A4343EA0E0342EA5D
:1059B00009023B4342EA08021E4342EA0C032B431E
:1059C000234306604360E5E7012AF0B5D1F80CC037
:1059D0008F680D694E6991E8084089691BD082681B
:1059E0000EF1FF3E02F07042013B42EA0E121A43F2
:1059F0007B1E42EA03230CF1FF3C43EA0C33013DDA
:105A000043EA0543013E43EA0653013943EA016391
:105A100083600020F0BD8468C2680EF1FF3E02F092
:105A20007042013B42EA0E121A4324F470047B1EBA
:105A300042EA03220CF1FF3C24F470446B1E44EA5A
:105A40000C34013E42EA0343013944EA065643EA74
:105A500001638660C360DCE773B5002301931546DC
:105A600091E80C001343CA6843EA42238A68013A6A
:105A700043EA42130193019B03610446FCF758FC7F
:105A80000646A06910F0200003D06B1CF9D015B9B0
:105A9000032002B070BDFCF74BFC801B8542F0D2A6
:105AA000F6E7436943EA41014161002070477FB551
:105AB0000F23019302230293002303934FF4A05377
:105AC000049305214FF4805301A80593FEF70AFFC4
:105AD000B0FA80F0400907B05DF804FB0E49D1F838
